{"abi":[{"type":"constructor","inputs":[{"name":"_poolManager","type":"address","internalType":"contract IPoolManager"},{"name":"addressToEtch","type":"address","internalType":"contract FullRange"}],"stateMutability":"nonpayable"},{"type":"function","name":"_rebalance","inputs":[{"name":"key","type":"tuple","internalType":"struct PoolKey","components":[{"name":"currency0","type":"address","internalType":"Currency"},{"name":"currency1","type":"address","internalType":"Currency"},{"name":"fee","type":"uint24","internalType":"uint24"},{"name":"tickSpacing","type":"int24","internalType":"int24"},{"name":"hooks","type":"address","internalType":"contract IHooks"}]}],"outputs":[],"stateMutability":"nonpayable"},{"type":"function","name":"addLiquidity","inputs":[{"name":"params","type":"tuple","internalType":"struct FullRange.AddLiquidityParams","components":[{"name":"currency0","type":"address","internalType":"Currency"},{"name":"currency1","type":"address","internalType":"Currency"},{"name":"fee","type":"uint24","internalType":"uint24"},{"name":"amount0Desired","type":"uint256","internalType":"uint256"},{"name":"amount1Desired","type":"uint256","internalType":"uint256"},{"name":"amount0Min","type":"uint256","internalType":"uint256"},{"name":"amount1Min","type":"uint256","internalType":"uint256"},{"name":"to","type":"address","internalType":"address"},{"name":"deadline","type":"uint256","internalType":"uint256"}]}],"outputs":[{"name":"liquidity","type":"uint128","internalType":"uint128"}],"stateMutability":"nonpayable"},{"type":"function","name":"afterAddLiquidity","inputs":[{"name":"","type":"address","internalType":"address"},{"name":"","type":"tuple","internalType":"struct PoolKey","components":[{"name":"currency0","type":"address","internalType":"Currency"},{"name":"currency1","type":"address","internalType":"Currency"},{"name":"fee","type":"uint24","internalType":"uint24"},{"name":"tickSpacing","type":"int24","internalType":"int24"},{"name":"hooks","type":"address","internalType":"contract IHooks"}]},{"name":"","type":"tuple","internalType":"struct IPoolManager.ModifyLiquidityParams","components":[{"name":"tickLower","type":"int24","internalType":"int24"},{"name":"tickUpper","type":"int24","internalType":"int24"},{"name":"liquidityDelta","type":"int256","internalType":"int256"},{"name":"salt","type":"bytes32","internalType":"bytes32"}]},{"name":"","type":"int256","internalType":"BalanceDelta"},{"name":"","type":"bytes","internalType":"bytes"}],"outputs":[{"name":"","type":"bytes4","internalType":"bytes4"},{"name":"","type":"int256","internalType":"BalanceDelta"}],"stateMutability":"nonpayable"},{"type":"function","name":"afterDonate","inputs":[{"name":"","type":"address","internalType":"address"},{"name":"","type":"tuple","internalType":"struct PoolKey","components":[{"name":"currency0","type":"address","internalType":"Currency"},{"name":"currency1","type":"address","internalType":"Currency"},{"name":"fee","type":"uint24","internalType":"uint24"},{"name":"tickSpacing","type":"int24","internalType":"int24"},{"name":"hooks","type":"address","internalType":"contract IHooks"}]},{"name":"","type":"uint256","internalType":"uint256"},{"name":"","type":"uint256","internalType":"uint256"},{"name":"","type":"bytes","internalType":"bytes"}],"outputs":[{"name":"","type":"bytes4","internalType":"bytes4"}],"stateMutability":"nonpayable"},{"type":"function","name":"afterInitialize","inputs":[{"name":"","type":"address","internalType":"address"},{"name":"","type":"tuple","internalType":"struct PoolKey","components":[{"name":"currency0","type":"address","internalType":"Currency"},{"name":"currency1","type":"address","internalType":"Currency"},{"name":"fee","type":"uint24","internalType":"uint24"},{"name":"tickSpacing","type":"int24","internalType":"int24"},{"name":"hooks","type":"address","internalType":"contract IHooks"}]},{"name":"","type":"uint160","internalType":"uint160"},{"name":"","type":"int24","internalType":"int24"},{"name":"","type":"bytes","internalType":"bytes"}],"outputs":[{"name":"","type":"bytes4","internalType":"bytes4"}],"stateMutability":"nonpayable"},{"type":"function","name":"afterRemoveLiquidity","inputs":[{"name":"","type":"address","internalType":"address"},{"name":"","type":"tuple","internalType":"struct PoolKey","components":[{"name":"currency0","type":"address","internalType":"Currency"},{"name":"currency1","type":"address","internalType":"Currency"},{"name":"fee","type":"uint24","internalType":"uint24"},{"name":"tickSpacing","type":"int24","internalType":"int24"},{"name":"hooks","type":"address","internalType":"contract IHooks"}]},{"name":"","type":"tuple","internalType":"struct IPoolManager.ModifyLiquidityParams","components":[{"name":"tickLower","type":"int24","internalType":"int24"},{"name":"tickUpper","type":"int24","internalType":"int24"},{"name":"liquidityDelta","type":"int256","internalType":"int256"},{"name":"salt","type":"bytes32","internalType":"bytes32"}]},{"name":"","type":"int256","internalType":"BalanceDelta"},{"name":"","type":"bytes","internalType":"bytes"}],"outputs":[{"name":"","type":"bytes4","internalType":"bytes4"},{"name":"","type":"int256","internalType":"BalanceDelta"}],"stateMutability":"nonpayable"},{"type":"function","name":"afterSwap","inputs":[{"name":"","type":"address","internalType":"address"},{"name":"","type":"tuple","internalType":"struct PoolKey","components":[{"name":"currency0","type":"address","internalType":"Currency"},{"name":"currency1","type":"address","internalType":"Currency"},{"name":"fee","type":"uint24","internalType":"uint24"},{"name":"tickSpacing","type":"int24","internalType":"int24"},{"name":"hooks","type":"address","internalType":"contract IHooks"}]},{"name":"","type":"tuple","internalType":"struct IPoolManager.SwapParams","components":[{"name":"zeroForOne","type":"bool","internalType":"bool"},{"name":"amountSpecified","type":"int256","internalType":"int256"},{"name":"sqrtPriceLimitX96","type":"uint160","internalType":"uint160"}]},{"name":"","type":"int256","internalType":"BalanceDelta"},{"name":"","type":"bytes","internalType":"bytes"}],"outputs":[{"name":"","type":"bytes4","internalType":"bytes4"},{"name":"","type":"int128","internalType":"int128"}],"stateMutability":"nonpayable"},{"type":"function","name":"beforeAddLiquidity","inputs":[{"name":"sender","type":"address","internalType":"address"},{"name":"","type":"tuple","internalType":"struct PoolKey","components":[{"name":"currency0","type":"address","internalType":"Currency"},{"name":"currency1","type":"address","internalType":"Currency"},{"name":"fee","type":"uint24","internalType":"uint24"},{"name":"tickSpacing","type":"int24","internalType":"int24"},{"name":"hooks","type":"address","internalType":"contract IHooks"}]},{"name":"","type":"tuple","internalType":"struct IPoolManager.ModifyLiquidityParams","components":[{"name":"tickLower","type":"int24","internalType":"int24"},{"name":"tickUpper","type":"int24","internalType":"int24"},{"name":"liquidityDelta","type":"int256","internalType":"int256"},{"name":"salt","type":"bytes32","internalType":"bytes32"}]},{"name":"","type":"bytes","internalType":"bytes"}],"outputs":[{"name":"","type":"bytes4","internalType":"bytes4"}],"stateMutability":"view"},{"type":"function","name":"beforeDonate","inputs":[{"name":"","type":"address","internalType":"address"},{"name":"","type":"tuple","internalType":"struct PoolKey","components":[{"name":"currency0","type":"address","internalType":"Currency"},{"name":"currency1","type":"address","internalType":"Currency"},{"name":"fee","type":"uint24","internalType":"uint24"},{"name":"tickSpacing","type":"int24","internalType":"int24"},{"name":"hooks","type":"address","internalType":"contract IHooks"}]},{"name":"","type":"uint256","internalType":"uint256"},{"name":"","type":"uint256","internalType":"uint256"},{"name":"","type":"bytes","internalType":"bytes"}],"outputs":[{"name":"","type":"bytes4","internalType":"bytes4"}],"stateMutability":"nonpayable"},{"type":"function","name":"beforeInitialize","inputs":[{"name":"","type":"address","internalType":"address"},{"name":"key","type":"tuple","internalType":"struct PoolKey","components":[{"name":"currency0","type":"address","internalType":"Currency"},{"name":"currency1","type":"address","internalType":"Currency"},{"name":"fee","type":"uint24","internalType":"uint24"},{"name":"tickSpacing","type":"int24","internalType":"int24"},{"name":"hooks","type":"address","internalType":"contract IHooks"}]},{"name":"","type":"uint160","internalType":"uint160"},{"name":"","type":"bytes","internalType":"bytes"}],"outputs":[{"name":"","type":"bytes4","internalType":"bytes4"}],"stateMutability":"nonpayable"},{"type":"function","name":"beforeRemoveLiquidity","inputs":[{"name":"","type":"address","internalType":"address"},{"name":"","type":"tuple","internalType":"struct PoolKey","components":[{"name":"currency0","type":"address","internalType":"Currency"},{"name":"currency1","type":"address","internalType":"Currency"},{"name":"fee","type":"uint24","internalType":"uint24"},{"name":"tickSpacing","type":"int24","internalType":"int24"},{"name":"hooks","type":"address","internalType":"contract IHooks"}]},{"name":"","type":"tuple","internalType":"struct IPoolManager.ModifyLiquidityParams","components":[{"name":"tickLower","type":"int24","internalType":"int24"},{"name":"tickUpper","type":"int24","internalType":"int24"},{"name":"liquidityDelta","type":"int256","internalType":"int256"},{"name":"salt","type":"bytes32","internalType":"bytes32"}]},{"name":"","type":"bytes","internalType":"bytes"}],"outputs":[{"name":"","type":"bytes4","internalType":"bytes4"}],"stateMutability":"nonpayable"},{"type":"function","name":"beforeSwap","inputs":[{"name":"","type":"address","internalType":"address"},{"name":"key","type":"tuple","internalType":"struct PoolKey","components":[{"name":"currency0","type":"address","internalType":"Currency"},{"name":"currency1","type":"address","internalType":"Currency"},{"name":"fee","type":"uint24","internalType":"uint24"},{"name":"tickSpacing","type":"int24","internalType":"int24"},{"name":"hooks","type":"address","internalType":"contract IHooks"}]},{"name":"","type":"tuple","internalType":"struct IPoolManager.SwapParams","components":[{"name":"zeroForOne","type":"bool","internalType":"bool"},{"name":"amountSpecified","type":"int256","internalType":"int256"},{"name":"sqrtPriceLimitX96","type":"uint160","internalType":"uint160"}]},{"name":"","type":"bytes","internalType":"bytes"}],"outputs":[{"name":"","type":"bytes4","internalType":"bytes4"},{"name":"","type":"int256","internalType":"BeforeSwapDelta"},{"name":"","type":"uint24","internalType":"uint24"}],"stateMutability":"nonpayable"},{"type":"function","name":"getHookPermissions","inputs":[],"outputs":[{"name":"","type":"tuple","internalType":"struct Hooks.Permissions","components":[{"name":"beforeInitialize","type":"bool","internalType":"bool"},{"name":"afterInitialize","type":"bool","internalType":"bool"},{"name":"beforeAddLiquidity","type":"bool","internalType":"bool"},{"name":"afterAddLiquidity","type":"bool","internalType":"bool"},{"name":"beforeRemoveLiquidity","type":"bool","internalType":"bool"},{"name":"afterRemoveLiquidity","type":"bool","internalType":"bool"},{"name":"beforeSwap","type":"bool","internalType":"bool"},{"name":"afterSwap","type":"bool","internalType":"bool"},{"name":"beforeDonate","type":"bool","internalType":"bool"},{"name":"afterDonate","type":"bool","internalType":"bool"},{"name":"beforeSwapReturnDelta","type":"bool","internalType":"bool"},{"name":"afterSwapReturnDelta","type":"bool","internalType":"bool"},{"name":"afterAddLiquidityReturnDelta","type":"bool","internalType":"bool"},{"name":"afterRemoveLiquidityReturnDelta","type":"bool","internalType":"bool"}]}],"stateMutability":"pure"},{"type":"function","name":"manager","inputs":[],"outputs":[{"name":"","type":"address","internalType":"contract IPoolManager"}],"stateMutability":"view"},{"type":"function","name":"poolInfo","inputs":[{"name":"","type":"bytes32","internalType":"PoolId"}],"outputs":[{"name":"hasAccruedFees","type":"bool","internalType":"bool"},{"name":"liquidityToken","type":"address","internalType":"address"}],"stateMutability":"view"},{"type":"function","name":"removeLiquidity","inputs":[{"name":"params","type":"tuple","internalType":"struct FullRange.RemoveLiquidityParams","components":[{"name":"currency0","type":"address","internalType":"Currency"},{"name":"currency1","type":"address","internalType":"Currency"},{"name":"fee","type":"uint24","internalType":"uint24"},{"name":"liquidity","type":"uint256","internalType":"uint256"},{"name":"deadline","type":"uint256","internalType":"uint256"}]}],"outputs":[{"name":"delta","type":"int256","internalType":"BalanceDelta"}],"stateMutability":"nonpayable"},{"type":"function","name":"unlockCallback","inputs":[{"name":"data","type":"bytes","internalType":"bytes"}],"outputs":[{"name":"","type":"bytes","internalType":"bytes"}],"stateMutability":"nonpayable"},{"type":"error","name":"ExpiredPastDeadline","inputs":[]},{"type":"error","name":"HookNotImplemented","inputs":[]},{"type":"error","name":"InvalidPool","inputs":[]},{"type":"error","name":"LiquidityDoesntMeetMinimum","inputs":[]},{"type":"error","name":"LockFailure","inputs":[]},{"type":"error","name":"NotManager","inputs":[]},{"type":"error","name":"NotSelf","inputs":[]},{"type":"error","name":"PoolNotInitialized","inputs":[]},{"type":"error","name":"SenderMustBeHook","inputs":[]},{"type":"error","name":"TickSpacingNotDefault","inputs":[]},{"type":"error","name":"TooMuchSlippage","inputs":[]}],"bytecode":{"object":"0x60a060405234801562000010575f80fd5b5060405162005662380380620056628339810160408190526200003391620002c2565b6001600160a01b038216608052816200013690508162000130604080516101c0810182525f80825260208201819052918101829052606081018290526080810182905260a0810182905260c0810182905260e08101829052610100810182905261012081018290526101408101829052610160810182905261018081018290526101a081019190915250604080516101c08101825260018082525f60208301819052928201819052606082018390526080820183905260a0820183905260c082015260e08101829052610100810182905261012081018290526101408101829052610160810182905261018081018290526101a081019190915290565b62000141565b5050620002ff565b50565b8051151561200083161515141580620001665750602081015115156110008316151514155b806200017e5750604081015115156108008316151514155b80620001965750606081015115156104008316151514155b80620001ae5750608081015115156102008316151514155b80620001c6575060a081015115156101008316151514155b80620001dd575060c0810151151560808316151514155b80620001f4575060e0810151151560408316151514155b806200020c5750610100810151151560208316151514155b80620002245750610120810151151560108316151514155b806200023c5750610140810151151560088316151514155b80620002545750610160810151151560048316151514155b806200026c5750610180810151151560028316151514155b806200028457506101a0810151151560018316151514155b156200029d576200029d630732d7b560e51b83620002a1565b5050565b815f528060045260245ffd5b6001600160a01b03811681146200013e575f80fd5b5f8060408385031215620002d4575f80fd5b8251620002e181620002ad565b6020840151909250620002f481620002ad565b809150509250929050565b6080516152cc620003965f395f81816101b101528181610a8601528181610b2b01528181610f1601528181610f8a0152818161104c015281816111d60152818161120401528181611409015281816115f40152818161177c01528181611fb9015281816121320152818161267b015281816127b5015281816128640152818161293c01528181612a1e0152612a7f01526152cc5ff3fe608060405234801562000010575f80fd5b50600436106200012c575f3560e01c80638db2b65211620000bb578063b6a8b0fa1162000087578063c4e833ce116200006b578063c4e833ce14620003fa578063e1b4af6914620003d0578063ea40265314620004f1575f80fd5b8063b6a8b0fa14620003d0578063c0e0267814620003e1575f80fd5b80638db2b652146200025457806391dd7346146200034c578063a910f80f1462000372578063b47b2fb11462000383575f80fd5b8063575e24b411620000fb578063575e24b414620001f95780635a2a81001462000254578063610fc66c14620002a45780638cebd94214620002dd575f80fd5b806321d0ee701462000130578063259982e5146200017d5780633440d8201462000194578063481c6a7514620001ab575b5f80fd5b620001476200014136600462002fd0565b62000517565b6040517fffffffff0000000000000000000000000000000000000000000000000000000090911681526020015b60405180910390f35b620001476200018e36600462002fd0565b6200054a565b62000147620001a536600462003051565b620005c7565b620001d37f000000000000000000000000000000000000000000000000000000000000000081565b60405173ffffffffffffffffffffffffffffffffffffffff909116815260200162000174565b620002106200020a366004620030c4565b620008b9565b604080517fffffffff000000000000000000000000000000000000000000000000000000009094168452602084019290925262ffffff169082015260600162000174565b6200026b6200026536600462003126565b62000954565b604080517fffffffff00000000000000000000000000000000000000000000000000000000909316835260208301919091520162000174565b620002bb620002b5366004620031b1565b62000988565b6040516fffffffffffffffffffffffffffffffff909116815260200162000174565b6200031f620002ee366004620031c3565b5f6020819052908152604090205460ff811690610100900473ffffffffffffffffffffffffffffffffffffffff1682565b60408051921515835273ffffffffffffffffffffffffffffffffffffffff90911660208301520162000174565b620003636200035d366004620031db565b62000efc565b6040516200017491906200328d565b6200014762000141366004620032b3565b620003946200026536600462003327565b604080517fffffffff000000000000000000000000000000000000000000000000000000009093168352600f9190910b60208301520162000174565b620001476200014136600462003392565b620003f8620003f236600462003528565b62000f83565b005b620004e2604080516101c0810182525f80825260208201819052918101829052606081018290526080810182905260a0810182905260c0810182905260e08101829052610100810182905261012081018290526101408101829052610160810182905261018081018290526101a081019190915250604080516101c08101825260018082525f60208301819052928201819052606082018390526080820183905260a0820183905260c082015260e08101829052610100810182905261012081018290526101408101829052610160810182905261018081018290526101a081019190915290565b60405162000174919062003545565b620005086200050236600462003638565b6200167f565b60405190815260200162000174565b5f6040517f0a85dc2900000000000000000000000000000000000000000000000000000000815260040160405180910390fd5b5f73ffffffffffffffffffffffffffffffffffffffff861630146200059b576040517f97d95e4000000000000000000000000000000000000000000000000000000000815260040160405180910390fd5b507f259982e5000000000000000000000000000000000000000000000000000000005b95945050505050565b5f620005da608086016060870162003655565b60020b603c1462000617576040517ff59f227600000000000000000000000000000000000000000000000000000000815260040160405180910390fd5b5f620006346200062d3688900388018862003528565b60a0902090565b90505f62000646602088018862003671565b73ffffffffffffffffffffffffffffffffffffffff166395d89b416040518163ffffffff1660e01b81526004015f60405180830381865afa1580156200068e573d5f803e3d5ffd5b505050506040513d5f823e601f3d9081017fffffffffffffffffffffffffffffffffffffffffffffffffffffffffffffffe0168201604052620006d5919081019062003728565b620006e76040890160208a0162003671565b73ffffffffffffffffffffffffffffffffffffffff166395d89b416040518163ffffffff1660e01b81526004015f60405180830381865afa1580156200072f573d5f803e3d5ffd5b505050506040513d5f823e601f3d9081017fffffffffffffffffffffffffffffffffffffffffffffffffffffffffffffffe016820160405262000776919081019062003728565b620007976200078c60608b0160408c0162003772565b62ffffff166200191d565b604051602001620007ab939291906200378e565b60405160208183030381529060405290505f8182604051620007cd9062002f2d565b620007da9291906200383a565b604051809103905ff080158015620007f4573d5f803e3d5ffd5b506040805180820182525f80825273ffffffffffffffffffffffffffffffffffffffff938416602080840191825297825296819052919091209051815495517fffffffffffffffffffffff0000000000000000000000000000000000000000009096169015157fffffffffffffffffffffff0000000000000000000000000000000000000000ff1617610100959092169490940217909255507f3440d82000000000000000000000000000000000000000000000000000000000979650505050505050565b5f808080620008d26200062d368a90038a018a62003528565b5f8181526020819052604090205490915060ff1662000922575f81815260208190526040902080547fffffffffffffffffffffffffffffffffffffffffffffffffffffffffffffff001660011790555b507f575e24b400000000000000000000000000000000000000000000000000000000985f985088975095505050505050565b5f806040517f0a85dc2900000000000000000000000000000000000000000000000000000000815260040160405180910390fd5b5f81610100013542811015620009ca576040517f82fb116800000000000000000000000000000000000000000000000000000000815260040160405180910390fd5b6040805160a081019091525f9080620009e7602087018762003671565b73ffffffffffffffffffffffffffffffffffffffff16815260200185602001602081019062000a17919062003671565b73ffffffffffffffffffffffffffffffffffffffff16815260200162000a44606087016040880162003772565b62ffffff168152603c60208201523060409091015290505f62000a688260a0902090565b90505f62000aad73ffffffffffffffffffffffffffffffffffffffff7f00000000000000000000000000000000000000000000000000000000000000001683620019e0565b50505090508073ffffffffffffffffffffffffffffffffffffffff165f0362000b02576040517f486aa30700000000000000000000000000000000000000000000000000000000815260040160405180910390fd5b5f8281526020819052604081209062000b5273ffffffffffffffffffffffffffffffffffffffff7f0000000000000000000000000000000000000000000000000000000000000000168562001aca565b905062000bc98362000b847ffffffffffffffffffffffffffffffffffffffffffffffffffffffffffff2764c62001b7a565b62000bb962000bb37ffffffffffffffffffffffffffffffffffffffffffffffffffffffffffff2764c6200388f565b62001b7a565b8b606001358c6080013562001e6c565b96506fffffffffffffffffffffffffffffffff811615801562000c0057506103e86fffffffffffffffffffffffffffffffff881611155b1562000c38576040517f38b7e8cc00000000000000000000000000000000000000000000000000000000815260040160405180910390fd5b5f62000cd28660405180608001604052807ffffffffffffffffffffffffffffffffffffffffffffffffffffffffffff2764c60020b81526020017ffffffffffffffffffffffffffffffffffffffffffffffffffffffffffff2764c62000c9e906200388f565b60020b815260200162000cc38c6fffffffffffffffffffffffffffffffff1662001f9a565b81525f60209091015262001fb6565b9050816fffffffffffffffffffffffffffffffff165f0362000d8a5762000cfc6103e889620038ce565b83546040517f40c10f190000000000000000000000000000000000000000000000000000000081525f60048201526103e86024820152919950610100900473ffffffffffffffffffffffffffffffffffffffff16906340c10f19906044015f604051808303815f87803b15801562000d72575f80fd5b505af115801562000d85573d5f803e3d5ffd5b505050505b825473ffffffffffffffffffffffffffffffffffffffff6101009182900416906340c10f199062000dc1908c0160e08d0162003671565b6040517fffffffff0000000000000000000000000000000000000000000000000000000060e084901b16815273ffffffffffffffffffffffffffffffffffffffff90911660048201526fffffffffffffffffffffffffffffffff8b1660248201526044015f604051808303815f87803b15801562000e3d575f80fd5b505af115801562000e50573d5f803e3d5ffd5b505050508860a0013562000e648260801d90565b62000e6f9062003901565b6fffffffffffffffffffffffffffffffff16108062000eb857508860c0013562000e9982600f0b90565b62000ea49062003901565b6fffffffffffffffffffffffffffffffff16105b1562000ef0576040517ffa6ad35500000000000000000000000000000000000000000000000000000000815260040160405180910390fd5b50505050505050919050565b60603373ffffffffffffffffffffffffffffffffffffffff7f0000000000000000000000000000000000000000000000000000000000000000161462000f6e576040517fc0fc8a8a00000000000000000000000000000000000000000000000000000000815260040160405180910390fd5b62000f7a8383620020db565b90505b92915050565b60a081205f7f000000000000000000000000000000000000000000000000000000000000000073ffffffffffffffffffffffffffffffffffffffff16635a6bcfda8460405180608001604052807ffffffffffffffffffffffffffffffffffffffffffffffffffffffffffff2764c60020b81526020017ffffffffffffffffffffffffffffffffffffffffffffffffffffffffffff2764c62001025906200388f565b60020b81526020016200108b6200107373ffffffffffffffffffffffffffffffffffffffff7f0000000000000000000000000000000000000000000000000000000000000000168962001aca565b6fffffffffffffffffffffffffffffffff1662001f9a565b620010969062003938565b81525f6020918201819052604080519283018152908252517fffffffff0000000000000000000000000000000000000000000000000000000060e086901b168152620010e89392919060040162003971565b60408051808303815f875af115801562001104573d5f803e3d5ffd5b505050506040513d601f19601f820116820180604052508101906200112a919062003a11565b5090505f620011b86200114a6c0100000000000000000000000062002223565b620011a6620011a06200115d86600f0b90565b6fffffffffffffffffffffffffffffffff166c01000000000000000000000000620011888860801d90565b6fffffffffffffffffffffffffffffffff16620022d9565b62002223565b620011b2919062003a34565b62002398565b90505f620011fd73ffffffffffffffffffffffffffffffffffffffff7f00000000000000000000000000000000000000000000000000000000000000001685620019e0565b50505090507f000000000000000000000000000000000000000000000000000000000000000073ffffffffffffffffffffffffffffffffffffffff1663f3cd914c8660405180606001604052808573ffffffffffffffffffffffffffffffffffffffff168773ffffffffffffffffffffffffffffffffffffffff16101515815260200160017f7fffffffffffffffffffffffffffffffffffffffffffffffffffffffffffffff620012ae9062003938565b620012ba919062003a4e565b815273ffffffffffffffffffffffffffffffffffffffff87166020918201526040805191820181525f8252517fffffffff0000000000000000000000000000000000000000000000000000000060e086901b168152620013209392919060040162003a70565b6020604051808303815f875af11580156200133d573d5f803e3d5ffd5b505050506040513d601f19601f8201168201806040525081019062001363919062003b16565b505f6200140483620013957ffffffffffffffffffffffffffffffffffffffffffffffffffffffffffff2764c62001b7a565b620013c462000bb37ffffffffffffffffffffffffffffffffffffffffffffffffffffffffffff2764c6200388f565b620013cf8860801d90565b6fffffffffffffffffffffffffffffffff16620013ec89600f0b90565b6fffffffffffffffffffffffffffffffff1662001e6c565b90505f7f000000000000000000000000000000000000000000000000000000000000000073ffffffffffffffffffffffffffffffffffffffff16635a6bcfda8860405180608001604052807ffffffffffffffffffffffffffffffffffffffffffffffffffffffffffff2764c60020b81526020017ffffffffffffffffffffffffffffffffffffffffffffffffffffffffffff2764c620014a4906200388f565b60020b8152602001620014c9876fffffffffffffffffffffffffffffffff1662001f9a565b81525f6020918201819052604080519283018152908252517fffffffff0000000000000000000000000000000000000000000000000000000060e086901b1681526200151b9392919060040162003971565b60408051808303815f875af115801562001537573d5f803e3d5ffd5b505050506040513d601f19601f820116820180604052508101906200155d919062003a11565b5090505f6200156c8260801d90565b620015778760801d90565b62001583919062003b2e565b90505f6200159183600f0b90565b6200159c88600f0b90565b620015a8919062003b2e565b604080516020810182525f815290517f234266d700000000000000000000000000000000000000000000000000000000815291925073ffffffffffffffffffffffffffffffffffffffff7f0000000000000000000000000000000000000000000000000000000000000000169163234266d79162001630918d91879187919060040162003b7f565b6020604051808303815f875af11580156200164d573d5f803e3d5ffd5b505050506040513d601f19601f8201168201806040525081019062001673919062003b16565b50505050505050505050565b5f816080013542811015620016c0576040517f82fb116800000000000000000000000000000000000000000000000000000000815260040160405180910390fd5b6040805160a081019091525f9080620016dd602087018762003671565b73ffffffffffffffffffffffffffffffffffffffff1681526020018560200160208101906200170d919062003671565b73ffffffffffffffffffffffffffffffffffffffff1681526020016200173a606087016040880162003772565b62ffffff168152603c60208201523060409091015290505f6200175e8260a0902090565b90505f620017a373ffffffffffffffffffffffffffffffffffffffff7f00000000000000000000000000000000000000000000000000000000000000001683620019e0565b50505090508073ffffffffffffffffffffffffffffffffffffffff165f03620017f8576040517f486aa30700000000000000000000000000000000000000000000000000000000815260040160405180910390fd5b5f8281526020818152604091829020548251608081019093527ffffffffffffffffffffffffffffffffffffffffffffffffffffffffffff2764c80845261010090910473ffffffffffffffffffffffffffffffffffffffff16926200188a9287929082019062001868906200388f565b60020b81526020016200187f8b6060013562001f9a565b62000cc39062003938565b6040517f9dc29fac0000000000000000000000000000000000000000000000000000000081523360048201526060890135602482015290965073ffffffffffffffffffffffffffffffffffffffff821690639dc29fac906044015f604051808303815f87803b158015620018fc575f80fd5b505af11580156200190f573d5f803e3d5ffd5b505050505050505050919050565b60605f6200192b83620023c4565b60010190505f8167ffffffffffffffff8111156200194d576200194d620033f2565b6040519080825280601f01601f19166020018201604052801562001978576020820181803683370190505b5090508181016020015b7fffffffffffffffffffffffffffffffffffffffffffffffffffffffffffffffff017f3031323334353637383961626364656600000000000000000000000000000000600a86061a8153600a85049450846200198257509392505050565b5f805f805f620019f086620024ac565b6040517f1e2eaeaf000000000000000000000000000000000000000000000000000000008152600481018290529091505f9073ffffffffffffffffffffffffffffffffffffffff891690631e2eaeaf90602401602060405180830381865afa15801562001a5f573d5f803e3d5ffd5b505050506040513d601f19601f8201168201806040525081019062001a85919062003b16565b905073ffffffffffffffffffffffffffffffffffffffff811695508060a01c60020b945062ffffff8160b81c16935062ffffff8160d01c169250505092959194509250565b5f8062001ad783620024ac565b90505f62001ae760038362003c1d565b6040517f1e2eaeaf0000000000000000000000000000000000000000000000000000000081526004810182905290915073ffffffffffffffffffffffffffffffffffffffff861690631e2eaeaf90602401602060405180830381865afa15801562001b54573d5f803e3d5ffd5b505050506040513d601f19601f82011682018060405250810190620005be919062003b16565b5f60ff82901d80830118620d89e881111562001b9d5763ce8ef7fc5f526004601cfd5b7001fffcb933bd6fad37aa2d162d1a594001600182160270010000000000000000000000000000000018600282161562001be7576ffff97272373d413259a46990580e213a0260801c5b600482161562001c07576ffff2e50f5f656932ef12357cf3c7fdcc0260801c5b600882161562001c27576fffe5caca7e10e4e61c3624eaa0941cd00260801c5b601082161562001c47576fffcb9843d60f6159c9db58835c9266440260801c5b602082161562001c67576fff973b41fa98c081472e6896dfb254c00260801c5b604082161562001c87576fff2ea16466c96a3843ec78b326b528610260801c5b608082161562001ca7576ffe5dee046a99a2a811c461f1969c30530260801c5b61010082161562001cc8576ffcbe86c7900a88aedcffc83b479aa3a40260801c5b61020082161562001ce9576ff987a7253ac413176f2b074cf7815e540260801c5b61040082161562001d0a576ff3392b0822b70005940c7a398e4b70f30260801c5b61080082161562001d2b576fe7159475a2c29b7443b29c7fa6e889d90260801c5b61100082161562001d4c576fd097f3bdfd2022b8845ad8f792aa58250260801c5b61200082161562001d6d576fa9f746462d870fdf8a65dc1f90e061e50260801c5b61400082161562001d8e576f70d869a156d2a1b890bb3df62baf32f70260801c5b61800082161562001daf576f31be135f97d08fd981231505542fcfa60260801c5b6201000082161562001dd1576f09aa508b5b7a84e1c677de54f3e99bc90260801c5b6202000082161562001df2576e5d6af8dedb81196699c329225ee6040260801c5b6204000082161562001e12576d2216e584f5fa1ea926041bedfe980260801c5b6208000082161562001e30576b048a170391f7dc42444e8fa20260801c5b5f84131562001e5c577fffffffffffffffffffffffffffffffffffffffffffffffffffffffffffffffff045b63ffffffff0160201c9392505050565b5f8373ffffffffffffffffffffffffffffffffffffffff168573ffffffffffffffffffffffffffffffffffffffff16111562001ea6579293925b8473ffffffffffffffffffffffffffffffffffffffff168673ffffffffffffffffffffffffffffffffffffffff161162001eef5762001ee7858585620024e9565b9050620005be565b8373ffffffffffffffffffffffffffffffffffffffff168673ffffffffffffffffffffffffffffffffffffffff16101562001f83575f62001f32878686620024e9565b90505f62001f42878986620025a4565b9050806fffffffffffffffffffffffffffffffff16826fffffffffffffffffffffffffffffffff161062001f77578062001f79565b815b92505050620005be565b62001f90858584620025a4565b9695505050505050565b5f80821262001fa7575090565b62001fb162002609565b919050565b5f7f000000000000000000000000000000000000000000000000000000000000000073ffffffffffffffffffffffffffffffffffffffff166348c8949160405180606001604052803373ffffffffffffffffffffffffffffffffffffffff1681526020018681526020018581525060405160200162002036919062003c33565b6040516020818303038152906040526040518263ffffffff1660e01b81526004016200206391906200328d565b5f604051808303815f875af11580156200207f573d5f803e3d5ffd5b505050506040513d5f823e601f3d9081017fffffffffffffffffffffffffffffffffffffffffffffffffffffffffffffffe0168201604052620020c6919081019062003728565b80602001905181019062000f7a919062003b16565b60605f620020ec8385018562003cef565b90505f8082604001516040015112156200213057620021148260200151836040015162002616565b90506200212a825f015183602001518362002862565b620021fe565b7f000000000000000000000000000000000000000000000000000000000000000073ffffffffffffffffffffffffffffffffffffffff16635a6bcfda8360200151846040015160405180602001604052805f8152506040518463ffffffff1660e01b8152600401620021a59392919062003971565b60408051808303815f875af1158015620021c1573d5f803e3d5ffd5b505050506040513d601f19601f82011682018060405250810190620021e7919062003a11565b5082516020840151919250620021fe918362002a18565b6040805160208101839052016040516020818303038152906040529250505092915050565b60b5817101000000000000000000000000000000000081106200224b5760409190911b9060801c5b69010000000000000000008110620022685760209190911b9060401c5b650100000000008110620022815760109190911b9060201c5b63010000008110620022985760089190911b9060101c5b62010000010260121c80820401600190811c80830401811c80830401811c80830401811c80830401811c80830401811c80830401901c908190048111900390565b5f838302817fffffffffffffffffffffffffffffffffffffffffffffffffffffffffffffffff8587098281108382030391505080841162002318575f80fd5b805f036200232c5750829004905062002391565b5f848688095f868103871696879004966002600389028118808a02820302808a02820302808a02820302808a02820302808a02820302808a02909103029181900381900460010186841190950394909402919094039290920491909117919091029150505b9392505050565b5f740100000000000000000000000000000000000000008210620023c057620023c062002609565b5090565b5f807a184f03e93ff9f4daa797ed6e38ed64bf6a1f01000000000000000083106200240d577a184f03e93ff9f4daa797ed6e38ed64bf6a1f010000000000000000830492506040015b6d04ee2d6d415b85acef810000000083106200243a576d04ee2d6d415b85acef8100000000830492506020015b662386f26fc1000083106200245957662386f26fc10000830492506010015b6305f5e100831062002472576305f5e100830492506008015b61271083106200248757612710830492506004015b606483106200249a576064830492506002015b600a831062000f7d5760010192915050565b6040515f90620024cc908390600690602001918252602082015260400190565b604051602081830303815290604052805190602001209050919050565b5f8273ffffffffffffffffffffffffffffffffffffffff168473ffffffffffffffffffffffffffffffffffffffff16111562002523579192915b5f6200256a8573ffffffffffffffffffffffffffffffffffffffff168573ffffffffffffffffffffffffffffffffffffffff166c01000000000000000000000000620022d9565b9050620005be6200259e848362002582898962003db3565b73ffffffffffffffffffffffffffffffffffffffff16620022d9565b62002ae2565b5f8273ffffffffffffffffffffffffffffffffffffffff168473ffffffffffffffffffffffffffffffffffffffff161115620025de579192915b620026016200259e836c0100000000000000000000000062002582888862003db3565b949350505050565b6393dafdf15f526004601cfd5b5f80620026248460a0902090565b5f81815260208190526040902080549192509060ff16156200264b576200264b8562000f83565b5f6200274d8560400151620026609062003938565b620026a273ffffffffffffffffffffffffffffffffffffffff7f0000000000000000000000000000000000000000000000000000000000000000168662001aca565b6fffffffffffffffffffffffffffffffff16845f0160019054906101000a900473ffffffffffffffffffffffffffffffffffffffff1673ffffffffffffffffffffffffffffffffffffffff166318160ddd6040518163ffffffff1660e01b8152600401602060405180830381865afa15801562002721573d5f803e3d5ffd5b505050506040513d601f19601f8201168201806040525081019062002747919062003b16565b620022d9565b90506200275a8162001f9a565b620027659062003938565b60408087019190915280516020810182525f815290517f5a6bcfda00000000000000000000000000000000000000000000000000000000815273ffffffffffffffffffffffffffffffffffffffff7f00000000000000000000000000000000000000000000000000000000000000001691635a6bcfda91620027ef918a918a919060040162003971565b60408051808303815f875af11580156200280b573d5f803e3d5ffd5b505050506040513d601f19601f8201168201806040525081019062002831919062003a11565b5082547fffffffffffffffffffffffffffffffffffffffffffffffffffffffffffffff001690925550949350505050565b7f000000000000000000000000000000000000000000000000000000000000000073ffffffffffffffffffffffffffffffffffffffff16630b0d9c09835f015185620028ae8560801d90565b6040517fffffffff0000000000000000000000000000000000000000000000000000000060e086901b16815273ffffffffffffffffffffffffffffffffffffffff9384166004820152929091166024830152600f0b60448201526064015f604051808303815f87803b15801562002923575f80fd5b505af115801562002936573d5f803e3d5ffd5b505050507f000000000000000000000000000000000000000000000000000000000000000073ffffffffffffffffffffffffffffffffffffffff16630b0d9c098360200151856200298785600f0b90565b6040517fffffffff0000000000000000000000000000000000000000000000000000000060e086901b16815273ffffffffffffffffffffffffffffffffffffffff9384166004820152929091166024830152600f0b60448201526064015f604051808303815f87803b158015620029fc575f80fd5b505af115801562002a0f573d5f803e3d5ffd5b50505050505050565b62002a797f00000000000000000000000000000000000000000000000000000000000000008462002a498460801d90565b62002a549062003901565b855173ffffffffffffffffffffffffffffffffffffffff16929190600f0b5f62002b01565b62002add7f00000000000000000000000000000000000000000000000000000000000000008462002aaa84600f0b90565b62002ab59062003901565b602086015173ffffffffffffffffffffffffffffffffffffffff16929190600f0b5f62002b01565b505050565b806fffffffffffffffffffffffffffffffff8116811462001fb1575f80fd5b801562002be6578373ffffffffffffffffffffffffffffffffffffffff1663f5298aca8462002b598873ffffffffffffffffffffffffffffffffffffffff1673ffffffffffffffffffffffffffffffffffffffff1690565b6040517fffffffff0000000000000000000000000000000000000000000000000000000060e085901b16815273ffffffffffffffffffffffffffffffffffffffff90921660048301526024820152604481018590526064015f604051808303815f87803b15801562002bc9575f80fd5b505af115801562002bdc573d5f803e3d5ffd5b5050505062002f26565b73ffffffffffffffffffffffffffffffffffffffff851662002c9e576040517f6a256b2900000000000000000000000000000000000000000000000000000000815273ffffffffffffffffffffffffffffffffffffffff8681166004830152851690636a256b2990849060240160206040518083038185885af115801562002c70573d5f803e3d5ffd5b50505050506040513d601f19601f8201168201806040525081019062002c97919062003b16565b5062002f26565b6040517fa584119400000000000000000000000000000000000000000000000000000000815273ffffffffffffffffffffffffffffffffffffffff868116600483015285169063a5841194906024016020604051808303815f875af115801562002d0a573d5f803e3d5ffd5b505050506040513d601f19601f8201168201806040525081019062002d30919062003b16565b5073ffffffffffffffffffffffffffffffffffffffff8316301462002df7576040517f23b872dd00000000000000000000000000000000000000000000000000000000815273ffffffffffffffffffffffffffffffffffffffff84811660048301528581166024830152604482018490528616906323b872dd906064016020604051808303815f875af115801562002dca573d5f803e3d5ffd5b505050506040513d601f19601f8201168201806040525081019062002df0919062003de3565b5062002e92565b6040517fa9059cbb00000000000000000000000000000000000000000000000000000000815273ffffffffffffffffffffffffffffffffffffffff85811660048301526024820184905286169063a9059cbb906044016020604051808303815f875af115801562002e6a573d5f803e3d5ffd5b505050506040513d601f19601f8201168201806040525081019062002e90919062003de3565b505b6040517f6a256b2900000000000000000000000000000000000000000000000000000000815273ffffffffffffffffffffffffffffffffffffffff8681166004830152851690636a256b29906024016020604051808303815f875af115801562002efe573d5f803e3d5ffd5b505050506040513d601f19601f8201168201806040525081019062002f24919062003b16565b505b5050505050565b6114928062003e0583390190565b73ffffffffffffffffffffffffffffffffffffffff8116811462002f5d575f80fd5b50565b5f60a0828403121562002f71575f80fd5b50919050565b5f6080828403121562002f71575f80fd5b5f8083601f84011262002f99575f80fd5b50813567ffffffffffffffff81111562002fb1575f80fd5b60208301915083602082850101111562002fc9575f80fd5b9250929050565b5f805f805f610160868803121562002fe6575f80fd5b853562002ff38162002f3b565b945062003004876020880162002f60565b9350620030158760c0880162002f77565b925061014086013567ffffffffffffffff81111562003032575f80fd5b620030408882890162002f88565b969995985093965092949392505050565b5f805f805f610100868803121562003067575f80fd5b8535620030748162002f3b565b945062003085876020880162002f60565b935060c0860135620030978162002f3b565b925060e086013567ffffffffffffffff81111562003032575f80fd5b5f6060828403121562002f71575f80fd5b5f805f805f6101408688031215620030da575f80fd5b8535620030e78162002f3b565b9450620030f8876020880162002f60565b9350620031098760c08801620030b3565b925061012086013567ffffffffffffffff81111562003032575f80fd5b5f805f805f8061018087890312156200313d575f80fd5b86356200314a8162002f3b565b95506200315b886020890162002f60565b94506200316c8860c0890162002f77565b9350610140870135925061016087013567ffffffffffffffff81111562003191575f80fd5b6200319f89828a0162002f88565b979a9699509497509295939492505050565b5f610120828403121562002f71575f80fd5b5f60208284031215620031d4575f80fd5b5035919050565b5f8060208385031215620031ed575f80fd5b823567ffffffffffffffff81111562003204575f80fd5b620032128582860162002f88565b90969095509350505050565b5f5b838110156200323a57818101518382015260200162003220565b50505f910152565b5f81518084526200325b8160208601602086016200321e565b601f017fffffffffffffffffffffffffffffffffffffffffffffffffffffffffffffffe0169290920160200192915050565b602081525f62000f7a602083018462003242565b8035600281900b811462001fb1575f80fd5b5f805f805f806101208789031215620032ca575f80fd5b8635620032d78162002f3b565b9550620032e8886020890162002f60565b945060c0870135620032fa8162002f3b565b93506200330a60e08801620032a1565b925061010087013567ffffffffffffffff81111562003191575f80fd5b5f805f805f8061016087890312156200333e575f80fd5b86356200334b8162002f3b565b95506200335c886020890162002f60565b94506200336d8860c08901620030b3565b9350610120870135925061014087013567ffffffffffffffff81111562003191575f80fd5b5f805f805f806101208789031215620033a9575f80fd5b8635620033b68162002f3b565b9550620033c7886020890162002f60565b945060c0870135935060e0870135925061010087013567ffffffffffffffff81111562003191575f80fd5b7f4e487b71000000000000000000000000000000000000000000000000000000005f52604160045260245ffd5b6040516060810167ffffffffffffffff81118282101715620034455762003445620033f2565b60405290565b6040516080810167ffffffffffffffff81118282101715620034455762003445620033f2565b803562ffffff8116811462001fb1575f80fd5b5f60a0828403121562003495575f80fd5b60405160a0810181811067ffffffffffffffff82111715620034bb57620034bb620033f2565b6040529050808235620034ce8162002f3b565b81526020830135620034e08162002f3b565b6020820152620034f36040840162003471565b60408201526200350660608401620032a1565b606082015260808301356200351b8162002f3b565b6080919091015292915050565b5f60a0828403121562003539575f80fd5b62000f7a838362003484565b8151151581526101c08101602083015162003564602084018215159052565b50604083015162003579604084018215159052565b5060608301516200358e606084018215159052565b506080830151620035a3608084018215159052565b5060a0830151620035b860a084018215159052565b5060c0830151620035cd60c084018215159052565b5060e0830151620035e260e084018215159052565b5061010083810151151590830152610120808401511515908301526101408084015115159083015261016080840151151590830152610180808401511515908301526101a0928301511515929091019190915290565b5f60a0828403121562003649575f80fd5b62000f7a838362002f60565b5f6020828403121562003666575f80fd5b62000f7a82620032a1565b5f6020828403121562003682575f80fd5b8135620023918162002f3b565b5f67ffffffffffffffff80841115620036ac57620036ac620033f2565b604051601f85017fffffffffffffffffffffffffffffffffffffffffffffffffffffffffffffffe0908116603f01168101908282118183101715620036f557620036f5620033f2565b816040528093508581528686860111156200370e575f80fd5b6200371e8660208301876200321e565b5050509392505050565b5f6020828403121562003739575f80fd5b815167ffffffffffffffff81111562003750575f80fd5b8201601f8101841362003761575f80fd5b62002601848251602084016200368f565b5f6020828403121562003783575f80fd5b62000f7a8262003471565b7f556e69563400000000000000000000000000000000000000000000000000000081525f7f2d000000000000000000000000000000000000000000000000000000000000008060058401528551620037ee816006860160208a016200321e565b808401905081600682015285516200380e816007840160208a016200321e565b0160078101919091528351906200382d8260088301602088016200321e565b0160080195945050505050565b604081525f6200384e604083018562003242565b8281036020840152620005be818562003242565b7f4e487b71000000000000000000000000000000000000000000000000000000005f52601160045260245ffd5b5f8160020b7fffffffffffffffffffffffffffffffffffffffffffffffffffffffffff8000008103620038c657620038c662003862565b5f0392915050565b6fffffffffffffffffffffffffffffffff828116828216039080821115620038fa57620038fa62003862565b5092915050565b5f81600f0b7fffffffffffffffffffffffffffffffff800000000000000000000000000000008103620038c657620038c662003862565b5f7f800000000000000000000000000000000000000000000000000000000000000082036200396b576200396b62003862565b505f0390565b5f610140620039cf838773ffffffffffffffffffffffffffffffffffffffff80825116835280602083015116602084015262ffffff6040830151166040840152606082015160020b6060840152806080830151166080840152505050565b8451600290810b60a08501526020860151900b60c0840152604085015160e084015260608501516101008401528061012084015262001f908184018562003242565b5f806040838503121562003a23575f80fd5b505080516020909101519092909150565b808202811582820484141762000f7d5762000f7d62003862565b8181035f831280158383131683831282161715620038fa57620038fa62003862565b5f61012062003ace838773ffffffffffffffffffffffffffffffffffffffff80825116835280602083015116602084015262ffffff6040830151166040840152606082015160020b6060840152806080830151166080840152505050565b8451151560a0840152602085015160c084015273ffffffffffffffffffffffffffffffffffffffff60408601511660e08401528061010084015262001f908184018562003242565b5f6020828403121562003b27575f80fd5b5051919050565b600f81810b9083900b016f7fffffffffffffffffffffffffffffff81137fffffffffffffffffffffffffffffffff800000000000000000000000000000008212171562000f7d5762000f7d62003862565b5f61010062003bdd838873ffffffffffffffffffffffffffffffffffffffff80825116835280602083015116602084015262ffffff6040830151166040840152606082015160020b6060840152806080830151166080840152505050565b6fffffffffffffffffffffffffffffffff86811660a0850152851660c084015260e0830181905262003c128184018562003242565b979650505050505050565b8082018082111562000f7d5762000f7d62003862565b815173ffffffffffffffffffffffffffffffffffffffff16815260208083015161014083019162003cb59084018273ffffffffffffffffffffffffffffffffffffffff80825116835280602083015116602084015262ffffff6040830151166040840152606082015160020b6060840152806080830151166080840152505050565b506040838101518051600290810b60c08601526020820151900b60e0850152908101516101008401526060810151610120840152620038fa565b5f81830361014081121562003d02575f80fd5b62003d0c6200341f565b833562003d198162002f3b565b815262003d2a856020860162003484565b602082015260807fffffffffffffffffffffffffffffffffffffffffffffffffffffffffffffff408301121562003d5f575f80fd5b62003d696200344b565b915062003d7960c08501620032a1565b825262003d8960e08501620032a1565b60208301526101008401356040808401919091526101209094013560608301529283015250919050565b73ffffffffffffffffffffffffffffffffffffffff828116828216039080821115620038fa57620038fa62003862565b5f6020828403121562003df4575f80fd5b8151801515811462002391575f80fdfe60e060405234801562000010575f80fd5b50604051620014923803806200149283398101604081905262000033916200021e565b33828260125f6200004584826200030e565b5060016200005483826200030e565b5060ff81166080524660a0526200006a620000c3565b60c0525050600680546001600160a01b0319166001600160a01b0384169081179091556040519091505f907f8be0079c531659141344cd1fd0a4f28419497f9722a3daafe3b4186f6b6457e0908290a350505062000454565b5f7f8b73c3c69bb8fe3d512ecc4cf759cc79239f7b179b0ffacaa9a75d522b39400f5f604051620000f59190620003da565b6040805191829003822060208301939093528101919091527fc89efdaa54c0f20c7adf612882df0950f5a951637e0307cdcb4c672f298b8bc660608201524660808201523060a082015260c00160405160208183030381529060405280519060200120905090565b634e487b7160e01b5f52604160045260245ffd5b5f82601f83011262000181575f80fd5b81516001600160401b03808211156200019e576200019e6200015d565b604051601f8301601f19908116603f01168101908282118183101715620001c957620001c96200015d565b8160405283815260209250866020858801011115620001e6575f80fd5b5f91505b83821015620002095785820183015181830184015290820190620001ea565b5f602085830101528094505050505092915050565b5f806040838503121562000230575f80fd5b82516001600160401b038082111562000247575f80fd5b620002558683870162000171565b935060208501519150808211156200026b575f80fd5b506200027a8582860162000171565b9150509250929050565b600181811c908216806200029957607f821691505b602082108103620002b857634e487b7160e01b5f52602260045260245ffd5b50919050565b601f8211156200030957805f5260205f20601f840160051c81016020851015620002e55750805b601f840160051c820191505b8181101562000306575f8155600101620002f1565b50505b505050565b81516001600160401b038111156200032a576200032a6200015d565b62000342816200033b845462000284565b84620002be565b602080601f83116001811462000378575f8415620003605750858301515b5f19600386901b1c1916600185901b178555620003d2565b5f85815260208120601f198616915b82811015620003a85788860151825594840194600190910190840162000387565b5085821015620003c657878501515f19600388901b60f8161c191681555b505060018460011b0185555b505050505050565b5f808354620003e98162000284565b600182811680156200040457600181146200041a5762000448565b60ff198416875282151583028701945062000448565b875f526020805f205f5b858110156200043f5781548a82015290840190820162000424565b50505082870194505b50929695505050505050565b60805160a05160c0516110136200047f5f395f61053d01525f61050801525f61016f01526110135ff3fe608060405234801561000f575f80fd5b50600436106100fb575f3560e01c80637ecebe0011610093578063a9059cbb11610063578063a9059cbb1461025e578063d505accf14610271578063dd62ed3e14610284578063f2fde38b146102ae575f80fd5b80637ecebe00146101df5780638da5cb5b146101fe57806395d89b41146102435780639dc29fac1461024b575f80fd5b8063313ce567116100ce578063313ce5671461016a5780633644e515146101a357806340c10f19146101ab57806370a08231146101c0575f80fd5b806306fdde03146100ff578063095ea7b31461011d57806318160ddd1461014057806323b872dd14610157575b5f80fd5b6101076102c1565b6040516101149190610cb3565b60405180910390f35b61013061012b366004610d45565b61034c565b6040519015158152602001610114565b61014960025481565b604051908152602001610114565b610130610165366004610d6d565b6103c5565b6101917f000000000000000000000000000000000000000000000000000000000000000081565b60405160ff9091168152602001610114565b610149610505565b6101be6101b9366004610d45565b61055f565b005b6101496101ce366004610da6565b60036020525f908152604090205481565b6101496101ed366004610da6565b60056020525f908152604090205481565b60065461021e9073ffffffffffffffffffffffffffffffffffffffff1681565b60405173ffffffffffffffffffffffffffffffffffffffff9091168152602001610114565b6101076105f3565b6101be610259366004610d45565b610600565b61013061026c366004610d45565b61068b565b6101be61027f366004610dc6565b61070e565b610149610292366004610e33565b600460209081525f928352604080842090915290825290205481565b6101be6102bc366004610da6565b610a27565b5f80546102cd90610e64565b80601f01602080910402602001604051908101604052809291908181526020018280546102f990610e64565b80156103445780601f1061031b57610100808354040283529160200191610344565b820191905f5260205f20905b81548152906001019060200180831161032757829003601f168201915b505050505081565b335f81815260046020908152604080832073ffffffffffffffffffffffffffffffffffffffff8716808552925280832085905551919290917f8c5be1e5ebec7d5bd14f71427d1e84f3dd0314c0f7b2291e5b200ac8c7c3b925906103b39086815260200190565b60405180910390a35060015b92915050565b73ffffffffffffffffffffffffffffffffffffffff83165f9081526004602090815260408083203384529091528120547fffffffffffffffffffffffffffffffffffffffffffffffffffffffffffffffff8114610457576104268382610ee2565b73ffffffffffffffffffffffffffffffffffffffff86165f9081526004602090815260408083203384529091529020555b73ffffffffffffffffffffffffffffffffffffffff85165f908152600360205260408120805485929061048b908490610ee2565b909155505073ffffffffffffffffffffffffffffffffffffffff8085165f81815260036020526040908190208054870190555190918716907fddf252ad1be2c89b69c2b068fc378daa952ba7f163c4a11628f55a4df523b3ef906104f29087815260200190565b60405180910390a3506001949350505050565b5f7f0000000000000000000000000000000000000000000000000000000000000000461461053a57610535610b18565b905090565b507f000000000000000000000000000000000000000000000000000000000000000090565b60065473ffffffffffffffffffffffffffffffffffffffff1633146105e5576040517f08c379a000000000000000000000000000000000000000000000000000000000815260206004820152600c60248201527f554e415554484f52495a4544000000000000000000000000000000000000000060448201526064015b60405180910390fd5b6105ef8282610bb0565b5050565b600180546102cd90610e64565b60065473ffffffffffffffffffffffffffffffffffffffff163314610681576040517f08c379a000000000000000000000000000000000000000000000000000000000815260206004820152600c60248201527f554e415554484f52495a4544000000000000000000000000000000000000000060448201526064016105dc565b6105ef8282610c27565b335f908152600360205260408120805483919083906106ab908490610ee2565b909155505073ffffffffffffffffffffffffffffffffffffffff83165f81815260036020526040908190208054850190555133907fddf252ad1be2c89b69c2b068fc378daa952ba7f163c4a11628f55a4df523b3ef906103b39086815260200190565b42841015610778576040517f08c379a000000000000000000000000000000000000000000000000000000000815260206004820152601760248201527f5045524d49545f444541444c494e455f4558504952454400000000000000000060448201526064016105dc565b5f6001610783610505565b73ffffffffffffffffffffffffffffffffffffffff8a81165f8181526005602090815260409182902080546001810190915582517f6e71edae12b1b97f4d1f60370fef10105fa2faae0126114a169c64845d6126c98184015280840194909452938d166060840152608083018c905260a083019390935260c08083018b90528151808403909101815260e0830190915280519201919091207f190100000000000000000000000000000000000000000000000000000000000061010083015261010282019290925261012281019190915261014201604080517fffffffffffffffffffffffffffffffffffffffffffffffffffffffffffffffe081840301815282825280516020918201205f84529083018083525260ff871690820152606081018590526080810184905260a0016020604051602081039080840390855afa1580156108d1573d5f803e3d5ffd5b50506040517fffffffffffffffffffffffffffffffffffffffffffffffffffffffffffffffe0015191505073ffffffffffffffffffffffffffffffffffffffff81161580159061094c57508773ffffffffffffffffffffffffffffffffffffffff168173ffffffffffffffffffffffffffffffffffffffff16145b6109b2576040517f08c379a000000000000000000000000000000000000000000000000000000000815260206004820152600e60248201527f494e56414c49445f5349474e455200000000000000000000000000000000000060448201526064016105dc565b73ffffffffffffffffffffffffffffffffffffffff9081165f9081526004602090815260408083208a8516808552908352928190208990555188815291928a16917f8c5be1e5ebec7d5bd14f71427d1e84f3dd0314c0f7b2291e5b200ac8c7c3b925910160405180910390a350505050505050565b60065473ffffffffffffffffffffffffffffffffffffffff163314610aa8576040517f08c379a000000000000000000000000000000000000000000000000000000000815260206004820152600c60248201527f554e415554484f52495a4544000000000000000000000000000000000000000060448201526064016105dc565b600680547fffffffffffffffffffffffff00000000000000000000000000000000000000001673ffffffffffffffffffffffffffffffffffffffff831690811790915560405133907f8be0079c531659141344cd1fd0a4f28419497f9722a3daafe3b4186f6b6457e0905f90a350565b5f7f8b73c3c69bb8fe3d512ecc4cf759cc79239f7b179b0ffacaa9a75d522b39400f5f604051610b489190610ef5565b6040805191829003822060208301939093528101919091527fc89efdaa54c0f20c7adf612882df0950f5a951637e0307cdcb4c672f298b8bc660608201524660808201523060a082015260c00160405160208183030381529060405280519060200120905090565b8060025f828254610bc19190610fca565b909155505073ffffffffffffffffffffffffffffffffffffffff82165f818152600360209081526040808320805486019055518481527fddf252ad1be2c89b69c2b068fc378daa952ba7f163c4a11628f55a4df523b3ef91015b60405180910390a35050565b73ffffffffffffffffffffffffffffffffffffffff82165f9081526003602052604081208054839290610c5b908490610ee2565b90915550506002805482900390556040518181525f9073ffffffffffffffffffffffffffffffffffffffff8416907fddf252ad1be2c89b69c2b068fc378daa952ba7f163c4a11628f55a4df523b3ef90602001610c1b565b5f602080835283518060208501525f5b81811015610cdf57858101830151858201604001528201610cc3565b505f6040828601015260407fffffffffffffffffffffffffffffffffffffffffffffffffffffffffffffffe0601f8301168501019250505092915050565b803573ffffffffffffffffffffffffffffffffffffffff81168114610d40575f80fd5b919050565b5f8060408385031215610d56575f80fd5b610d5f83610d1d565b946020939093013593505050565b5f805f60608486031215610d7f575f80fd5b610d8884610d1d565b9250610d9660208501610d1d565b9150604084013590509250925092565b5f60208284031215610db6575f80fd5b610dbf82610d1d565b9392505050565b5f805f805f805f60e0888a031215610ddc575f80fd5b610de588610d1d565b9650610df360208901610d1d565b95506040880135945060608801359350608088013560ff81168114610e16575f80fd5b9699959850939692959460a0840135945060c09093013592915050565b5f8060408385031215610e44575f80fd5b610e4d83610d1d565b9150610e5b60208401610d1d565b90509250929050565b600181811c90821680610e7857607f821691505b602082108103610eaf577f4e487b71000000000000000000000000000000000000000000000000000000005f52602260045260245ffd5b50919050565b7f4e487b71000000000000000000000000000000000000000000000000000000005f52601160045260245ffd5b818103818111156103bf576103bf610eb5565b5f8083545f60018260011c91506001831680610f1257607f831692505b60208084108203610f4a577f4e487b71000000000000000000000000000000000000000000000000000000005f52602260045260245ffd5b818015610f5e5760018114610f9157610fbc565b7fffffffffffffffffffffffffffffffffffffffffffffffffffffffffffffff0086168952841515850289019650610fbc565b5f8a8152602090205f5b86811015610fb45781548b820152908501908301610f9b565b505084890196505b509498975050505050505050565b808201808211156103bf576103bf610eb556fea2646970667358221220aaacc47a95418ab25ef30965b8c3a0a0c47be7c89c212835cafb98787dddd48364736f6c63430008180033a26469706673582212201502a03da225eda81b0e9565f232fba55a27768b86326ad218cc0c49d10c95b864736f6c63430008180033","linkReferences":{}},"methodIdentifiers":{"_rebalance((address,address,uint24,int24,address))":"c0e02678","addLiquidity((address,address,uint24,uint256,uint256,uint256,uint256,address,uint256))":"610fc66c","afterAddLiquidity(address,(address,address,uint24,int24,address),(int24,int24,int256,bytes32),int256,bytes)":"5a2a8100","afterDonate(address,(address,address,uint24,int24,address),uint256,uint256,bytes)":"e1b4af69","afterInitialize(address,(address,address,uint24,int24,address),uint160,int24,bytes)":"a910f80f","afterRemoveLiquidity(address,(address,address,uint24,int24,address),(int24,int24,int256,bytes32),int256,bytes)":"8db2b652","afterSwap(address,(address,address,uint24,int24,address),(bool,int256,uint160),int256,bytes)":"b47b2fb1","beforeAddLiquidity(address,(address,address,uint24,int24,address),(int24,int24,int256,bytes32),bytes)":"259982e5","beforeDonate(address,(address,address,uint24,int24,address),uint256,uint256,bytes)":"b6a8b0fa","beforeInitialize(address,(address,address,uint24,int24,address),uint160,bytes)":"3440d820","beforeRemoveLiquidity(address,(address,address,uint24,int24,address),(int24,int24,int256,bytes32),bytes)":"21d0ee70","beforeSwap(address,(address,address,uint24,int24,address),(bool,int256,uint160),bytes)":"575e24b4","getHookPermissions()":"c4e833ce","manager()":"481c6a75","poolInfo(bytes32)":"8cebd942","removeLiquidity((address,address,uint24,uint256,uint256))":"ea402653","unlockCallback(bytes)":"91dd7346"},"id":104}